{
  "_format": "hh-sol-artifact-1",
  "contractName": "AchievementNFT",
  "sourceName": "contracts/ethereum/AchievementNFT.sol",
  "abi": [
    {
      "inputs": [],
      "stateMutability": "nonpayable",
      "type": "constructor"
    },
    {
      "inputs": [
        {
          "internalType": "address",
          "name": "sender",
          "type": "address"
        },
        {
          "internalType": "uint256",
          "name": "tokenId",
          "type": "uint256"
        },
        {
          "internalType": "address",
          "name": "owner",
          "type": "address"
        }
      ],
      "name": "ERC721IncorrectOwner",
      "type": "error"
    },
    {
      "inputs": [
        {
          "internalType": "address",
          "name": "operator",
          "type": "address"
        },
        {
          "internalType": "uint256",
          "name": "tokenId",
          "type": "uint256"
        }
      ],
      "name": "ERC721InsufficientApproval",
      "type": "error"
    },
    {
      "inputs": [
        {
          "internalType": "address",
          "name": "approver",
          "type": "address"
        }
      ],
      "name": "ERC721InvalidApprover",
      "type": "error"
    },
    {
      "inputs": [
        {
          "internalType": "address",
          "name": "operator",
          "type": "address"
        }
      ],
      "name": "ERC721InvalidOperator",
      "type": "error"
    },
    {
      "inputs": [
        {
          "internalType": "address",
          "name": "owner",
          "type": "address"
        }
      ],
      "name": "ERC721InvalidOwner",
      "type": "error"
    },
    {
      "inputs": [
        {
          "internalType": "address",
          "name": "receiver",
          "type": "address"
        }
      ],
      "name": "ERC721InvalidReceiver",
      "type": "error"
    },
    {
      "inputs": [
        {
          "internalType": "address",
          "name": "sender",
          "type": "address"
        }
      ],
      "name": "ERC721InvalidSender",
      "type": "error"
    },
    {
      "inputs": [
        {
          "internalType": "uint256",
          "name": "tokenId",
          "type": "uint256"
        }
      ],
      "name": "ERC721NonexistentToken",
      "type": "error"
    },
    {
      "inputs": [
        {
          "internalType": "address",
          "name": "owner",
          "type": "address"
        }
      ],
      "name": "OwnableInvalidOwner",
      "type": "error"
    },
    {
      "inputs": [
        {
          "internalType": "address",
          "name": "account",
          "type": "address"
        }
      ],
      "name": "OwnableUnauthorizedAccount",
      "type": "error"
    },
    {
      "anonymous": false,
      "inputs": [
        {
          "indexed": true,
          "internalType": "address",
          "name": "player",
          "type": "address"
        },
        {
          "indexed": true,
          "internalType": "uint256",
          "name": "tokenId",
          "type": "uint256"
        },
        {
          "indexed": false,
          "internalType": "uint256",
          "name": "questId",
          "type": "uint256"
        },
        {
          "indexed": false,
          "internalType": "uint256",
          "name": "timestamp",
          "type": "uint256"
        }
      ],
      "name": "AchievementMinted",
      "type": "event"
    },
    {
      "anonymous": false,
      "inputs": [
        {
          "indexed": true,
          "internalType": "address",
          "name": "owner",
          "type": "address"
        },
        {
          "indexed": true,
          "internalType": "address",
          "name": "approved",
          "type": "address"
        },
        {
          "indexed": true,
          "internalType": "uint256",
          "name": "tokenId",
          "type": "uint256"
        }
      ],
      "name": "Approval",
      "type": "event"
    },
    {
      "anonymous": false,
      "inputs": [
        {
          "indexed": true,
          "internalType": "address",
          "name": "owner",
          "type": "address"
        },
        {
          "indexed": true,
          "internalType": "address",
          "name": "operator",
          "type": "address"
        },
        {
          "indexed": false,
          "internalType": "bool",
          "name": "approved",
          "type": "bool"
        }
      ],
      "name": "ApprovalForAll",
      "type": "event"
    },
    {
      "anonymous": false,
      "inputs": [
        {
          "indexed": true,
          "internalType": "address",
          "name": "previousOwner",
          "type": "address"
        },
        {
          "indexed": true,
          "internalType": "address",
          "name": "newOwner",
          "type": "address"
        }
      ],
      "name": "OwnershipTransferred",
      "type": "event"
    },
    {
      "anonymous": false,
      "inputs": [
        {
          "indexed": true,
          "internalType": "address",
          "name": "player",
          "type": "address"
        },
        {
          "indexed": true,
          "internalType": "uint256",
          "name": "tier",
          "type": "uint256"
        },
        {
          "indexed": false,
          "internalType": "uint256",
          "name": "tokenId",
          "type": "uint256"
        },
        {
          "indexed": false,
          "internalType": "uint256",
          "name": "timestamp",
          "type": "uint256"
        }
      ],
      "name": "TierNFTMinted",
      "type": "event"
    },
    {
      "anonymous": false,
      "inputs": [
        {
          "indexed": true,
          "internalType": "address",
          "name": "from",
          "type": "address"
        },
        {
          "indexed": true,
          "internalType": "address",
          "name": "to",
          "type": "address"
        },
        {
          "indexed": true,
          "internalType": "uint256",
          "name": "tokenId",
          "type": "uint256"
        }
      ],
      "name": "Transfer",
      "type": "event"
    },
    {
      "inputs": [
        {
          "internalType": "address",
          "name": "to",
          "type": "address"
        },
        {
          "internalType": "uint256",
          "name": "tokenId",
          "type": "uint256"
        }
      ],
      "name": "approve",
      "outputs": [],
      "stateMutability": "nonpayable",
      "type": "function"
    },
    {
      "inputs": [
        {
          "internalType": "address",
          "name": "owner",
          "type": "address"
        }
      ],
      "name": "balanceOf",
      "outputs": [
        {
          "internalType": "uint256",
          "name": "",
          "type": "uint256"
        }
      ],
      "stateMutability": "view",
      "type": "function"
    },
    {
      "inputs": [],
      "name": "baseURI",
      "outputs": [
        {
          "internalType": "string",
          "name": "",
          "type": "string"
        }
      ],
      "stateMutability": "view",
      "type": "function"
    },
    {
      "inputs": [
        {
          "internalType": "uint256",
          "name": "tokenId",
          "type": "uint256"
        }
      ],
      "name": "getApproved",
      "outputs": [
        {
          "internalType": "address",
          "name": "",
          "type": "address"
        }
      ],
      "stateMutability": "view",
      "type": "function"
    },
    {
      "inputs": [
        {
          "internalType": "address",
          "name": "",
          "type": "address"
        },
        {
          "internalType": "uint256",
          "name": "",
          "type": "uint256"
        }
      ],
      "name": "hasClaimed",
      "outputs": [
        {
          "internalType": "bool",
          "name": "",
          "type": "bool"
        }
      ],
      "stateMutability": "view",
      "type": "function"
    },
    {
      "inputs": [
        {
          "internalType": "address",
          "name": "_player",
          "type": "address"
        },
        {
          "internalType": "uint256",
          "name": "_tier",
          "type": "uint256"
        }
      ],
      "name": "hasClaimedTier",
      "outputs": [
        {
          "internalType": "bool",
          "name": "",
          "type": "bool"
        }
      ],
      "stateMutability": "view",
      "type": "function"
    },
    {
      "inputs": [
        {
          "internalType": "address",
          "name": "owner",
          "type": "address"
        },
        {
          "internalType": "address",
          "name": "operator",
          "type": "address"
        }
      ],
      "name": "isApprovedForAll",
      "outputs": [
        {
          "internalType": "bool",
          "name": "",
          "type": "bool"
        }
      ],
      "stateMutability": "view",
      "type": "function"
    },
    {
      "inputs": [
        {
          "internalType": "address",
          "name": "_player",
          "type": "address"
        },
        {
          "internalType": "uint256",
          "name": "_questId",
          "type": "uint256"
        }
      ],
      "name": "mintAchievement",
      "outputs": [],
      "stateMutability": "nonpayable",
      "type": "function"
    },
    {
      "inputs": [
        {
          "internalType": "address",
          "name": "_player",
          "type": "address"
        },
        {
          "internalType": "uint256",
          "name": "_tier",
          "type": "uint256"
        }
      ],
      "name": "mintTierNFT",
      "outputs": [],
      "stateMutability": "nonpayable",
      "type": "function"
    },
    {
      "inputs": [],
      "name": "name",
      "outputs": [
        {
          "internalType": "string",
          "name": "",
          "type": "string"
        }
      ],
      "stateMutability": "view",
      "type": "function"
    },
    {
      "inputs": [],
      "name": "owner",
      "outputs": [
        {
          "internalType": "address",
          "name": "",
          "type": "address"
        }
      ],
      "stateMutability": "view",
      "type": "function"
    },
    {
      "inputs": [
        {
          "internalType": "uint256",
          "name": "tokenId",
          "type": "uint256"
        }
      ],
      "name": "ownerOf",
      "outputs": [
        {
          "internalType": "address",
          "name": "",
          "type": "address"
        }
      ],
      "stateMutability": "view",
      "type": "function"
    },
    {
      "inputs": [
        {
          "internalType": "address",
          "name": "",
          "type": "address"
        },
        {
          "internalType": "uint256",
          "name": "",
          "type": "uint256"
        }
      ],
      "name": "playerAchievements",
      "outputs": [
        {
          "internalType": "bool",
          "name": "",
          "type": "bool"
        }
      ],
      "stateMutability": "view",
      "type": "function"
    },
    {
      "inputs": [],
      "name": "renounceOwnership",
      "outputs": [],
      "stateMutability": "nonpayable",
      "type": "function"
    },
    {
      "inputs": [
        {
          "internalType": "address",
          "name": "from",
          "type": "address"
        },
        {
          "internalType": "address",
          "name": "to",
          "type": "address"
        },
        {
          "internalType": "uint256",
          "name": "tokenId",
          "type": "uint256"
        }
      ],
      "name": "safeTransferFrom",
      "outputs": [],
      "stateMutability": "nonpayable",
      "type": "function"
    },
    {
      "inputs": [
        {
          "internalType": "address",
          "name": "from",
          "type": "address"
        },
        {
          "internalType": "address",
          "name": "to",
          "type": "address"
        },
        {
          "internalType": "uint256",
          "name": "tokenId",
          "type": "uint256"
        },
        {
          "internalType": "bytes",
          "name": "data",
          "type": "bytes"
        }
      ],
      "name": "safeTransferFrom",
      "outputs": [],
      "stateMutability": "nonpayable",
      "type": "function"
    },
    {
      "inputs": [
        {
          "internalType": "address",
          "name": "operator",
          "type": "address"
        },
        {
          "internalType": "bool",
          "name": "approved",
          "type": "bool"
        }
      ],
      "name": "setApprovalForAll",
      "outputs": [],
      "stateMutability": "nonpayable",
      "type": "function"
    },
    {
      "inputs": [
        {
          "internalType": "string",
          "name": "_newBaseURI",
          "type": "string"
        }
      ],
      "name": "setBaseURI",
      "outputs": [],
      "stateMutability": "nonpayable",
      "type": "function"
    },
    {
      "inputs": [
        {
          "internalType": "bytes4",
          "name": "interfaceId",
          "type": "bytes4"
        }
      ],
      "name": "supportsInterface",
      "outputs": [
        {
          "internalType": "bool",
          "name": "",
          "type": "bool"
        }
      ],
      "stateMutability": "view",
      "type": "function"
    },
    {
      "inputs": [],
      "name": "symbol",
      "outputs": [
        {
          "internalType": "string",
          "name": "",
          "type": "string"
        }
      ],
      "stateMutability": "view",
      "type": "function"
    },
    {
      "inputs": [
        {
          "internalType": "uint256",
          "name": "",
          "type": "uint256"
        }
      ],
      "name": "tierTokenCount",
      "outputs": [
        {
          "internalType": "uint256",
          "name": "",
          "type": "uint256"
        }
      ],
      "stateMutability": "view",
      "type": "function"
    },
    {
      "inputs": [
        {
          "internalType": "uint256",
          "name": "tokenId",
          "type": "uint256"
        }
      ],
      "name": "tokenURI",
      "outputs": [
        {
          "internalType": "string",
          "name": "",
          "type": "string"
        }
      ],
      "stateMutability": "view",
      "type": "function"
    },
    {
      "inputs": [],
      "name": "totalMinted",
      "outputs": [
        {
          "internalType": "uint256",
          "name": "",
          "type": "uint256"
        }
      ],
      "stateMutability": "view",
      "type": "function"
    },
    {
      "inputs": [
        {
          "internalType": "address",
          "name": "from",
          "type": "address"
        },
        {
          "internalType": "address",
          "name": "to",
          "type": "address"
        },
        {
          "internalType": "uint256",
          "name": "tokenId",
          "type": "uint256"
        }
      ],
      "name": "transferFrom",
      "outputs": [],
      "stateMutability": "nonpayable",
      "type": "function"
    },
    {
      "inputs": [
        {
          "internalType": "address",
          "name": "newOwner",
          "type": "address"
        }
      ],
      "name": "transferOwnership",
      "outputs": [],
      "stateMutability": "nonpayable",
      "type": "function"
    }
  ],
  "bytecode": "0x60806040523480156200001157600080fd5b50336040518060400160405280601881526020017f436861696e52656163746f7220416368696576656d656e7400000000000000008152506040518060400160405280600681526020016510d49050d21560d21b815250816000908162000079919062000207565b50600162000088828262000207565b5050506001600160a01b038116620000ba57604051631e4fbdf760e01b81526000600482015260240160405180910390fd5b620000c58162000110565b5060408051808201909152601581527f697066733a2f2f516d506c616365686f6c6465722f00000000000000000000006020820152600b9062000109908262000207565b50620002d3565b600680546001600160a01b038381166001600160a01b0319831681179093556040519116919082907f8be0079c531659141344cd1fd0a4f28419497f9722a3daafe3b4186f6b6457e090600090a35050565b634e487b7160e01b600052604160045260246000fd5b600181811c908216806200018d57607f821691505b602082108103620001ae57634e487b7160e01b600052602260045260246000fd5b50919050565b601f8211156200020257600081815260208120601f850160051c81016020861015620001dd5750805b601f850160051c820191505b81811015620001fe57828155600101620001e9565b5050505b505050565b81516001600160401b0381111562000223576200022362000162565b6200023b8162000234845462000178565b84620001b4565b602080601f8311600181146200027357600084156200025a5750858301515b600019600386901b1c1916600185901b178555620001fe565b600085815260208120601f198616915b82811015620002a45788860151825594840194600190910190840162000283565b5085821015620002c35787850151600019600388901b60f8161c191681555b5050505050600190811b01905550565b61173780620002e36000396000f3fe608060405234801561001057600080fd5b50600436106101735760003560e01c80638da5cb5b116100de578063c87b56dd11610097578063e985e9c511610071578063e985e9c514610374578063e98df9cb14610387578063f1519ee7146103a7578063f2fde38b146103ba57600080fd5b8063c87b56dd146102fa578063c97592531461030d578063df999dfd1461034657600080fd5b80638da5cb5b1461028557806395d89b4114610296578063a22cb4651461029e578063a2309ff8146102b1578063b2931096146102b9578063b88d4fde146102e757600080fd5b806342842e0e1161013057806342842e0e1461021b57806355f804b31461022e5780636352211e146102415780636c0360eb1461025457806370a082311461025c578063715018a61461027d57600080fd5b806301ffc9a71461017857806306fdde03146101a0578063081812fc146101b5578063095ea7b3146101e057806323b872dd146101f5578063266910d714610208575b600080fd5b61018b6101863660046111ac565b6103cd565b60405190151581526020015b60405180910390f35b6101a861041f565b6040516101979190611220565b6101c86101c3366004611233565b6104b1565b6040516001600160a01b039091168152602001610197565b6101f36101ee366004611268565b6104da565b005b6101f3610203366004611292565b6104e9565b6101f3610216366004611268565b610579565b6101f3610229366004611292565b610687565b6101f361023c36600461135a565b6106a7565b6101c861024f366004611233565b6106bb565b6101a86106c6565b61026f61026a3660046113a3565b610754565b604051908152602001610197565b6101f361079c565b6006546001600160a01b03166101c8565b6101a86107b0565b6101f36102ac3660046113be565b6107bf565b60075461026f565b61018b6102c7366004611268565b600a60209081526000928352604080842090915290825290205460ff1681565b6101f36102f53660046113fa565b6107ca565b6101a8610308366004611233565b6107e2565b61018b61031b366004611268565b6001600160a01b03919091166000908152600a60209081526040808320938352929052205460ff1690565b61018b610354366004611268565b600860209081526000928352604080842090915290825290205460ff1681565b61018b610382366004611476565b61086e565b61026f610395366004611233565b60096020526000908152604090205481565b6101f36103b5366004611268565b61089c565b6101f36103c83660046113a3565b610a06565b60006001600160e01b031982166380ac58cd60e01b14806103fe57506001600160e01b03198216635b5e139f60e01b145b8061041957506301ffc9a760e01b6001600160e01b03198316145b92915050565b60606000805461042e906114a9565b80601f016020809104026020016040519081016040528092919081815260200182805461045a906114a9565b80156104a75780601f1061047c576101008083540402835291602001916104a7565b820191906000526020600020905b81548152906001019060200180831161048a57829003601f168201915b5050505050905090565b60006104bc82610a44565b506000828152600460205260409020546001600160a01b0316610419565b6104e5828233610a7d565b5050565b6001600160a01b03821661051857604051633250574960e11b8152600060048201526024015b60405180910390fd5b6000610525838333610a8a565b9050836001600160a01b0316816001600160a01b031614610573576040516364283d7b60e01b81526001600160a01b038086166004830152602482018490528216604482015260640161050f565b50505050565b610581610b83565b6001600160a01b038216600090815260086020908152604080832084845290915290205460ff16156105f55760405162461bcd60e51b815260206004820152601a60248201527f416368696576656d656e7420616c7265616479206d696e746564000000000000604482015260640161050f565b60078054906000610605836114e3565b90915550506007546106178382610bb0565b6001600160a01b0383166000818152600860209081526040808320868452825291829020805460ff19166001179055815185815242918101919091528392917fd32938dacaf2816ad02f9be453d83d9ba88fa8eb05ce09229c7fc174168086a791015b60405180910390a3505050565b6106a2838383604051806020016040528060008152506107ca565b505050565b6106af610b83565b600b6104e58282611550565b600061041982610a44565b600b80546106d3906114a9565b80601f01602080910402602001604051908101604052809291908181526020018280546106ff906114a9565b801561074c5780601f106107215761010080835404028352916020019161074c565b820191906000526020600020905b81548152906001019060200180831161072f57829003601f168201915b505050505081565b60006001600160a01b038216610780576040516322718ad960e21b81526000600482015260240161050f565b506001600160a01b031660009081526003602052604090205490565b6107a4610b83565b6107ae6000610bca565b565b60606001805461042e906114a9565b6104e5338383610c1c565b6107d58484846104e9565b6105733385858585610cb3565b606060006107ef836106bb565b6001600160a01b03160361083c5760405162461bcd60e51b8152602060048201526014602482015273151bdad95b88191bd95cc81b9bdd08195e1a5cdd60621b604482015260640161050f565b600b61084783610dde565b604051602001610858929190611610565b6040516020818303038152906040529050919050565b6001600160a01b03918216600090815260056020908152604080832093909416825291909152205460ff1690565b6108a4610b83565b600181101580156108b6575060038111155b6108f15760405162461bcd60e51b815260206004820152600c60248201526b24b73b30b634b2103a34b2b960a11b604482015260640161050f565b6001600160a01b0382166000908152600a6020908152604080832084845290915290205460ff161561095c5760405162461bcd60e51b8152602060048201526014602482015273151a595c88185b1c9958591e4818db185a5b595960621b604482015260640161050f565b6007805490600061096c836114e3565b909155505060075461097e8382610bb0565b6001600160a01b0383166000908152600a602090815260408083208584528252808320805460ff19166001179055600990915281208054916109bf836114e3565b90915550506040805182815242602082015283916001600160a01b038616917ff06faea7d00acc95891c342be53999d60f4110f610e751a1be89a3f64f5359e1910161067a565b610a0e610b83565b6001600160a01b038116610a3857604051631e4fbdf760e01b81526000600482015260240161050f565b610a4181610bca565b50565b6000818152600260205260408120546001600160a01b03168061041957604051637e27328960e01b81526004810184905260240161050f565b6106a28383836001610e71565b6000828152600260205260408120546001600160a01b0390811690831615610ab757610ab7818486610f77565b6001600160a01b03811615610af557610ad4600085600080610e71565b6001600160a01b038116600090815260036020526040902080546000190190555b6001600160a01b03851615610b24576001600160a01b0385166000908152600360205260409020805460010190555b60008481526002602052604080822080546001600160a01b0319166001600160a01b0389811691821790925591518793918516917fddf252ad1be2c89b69c2b068fc378daa952ba7f163c4a11628f55a4df523b3ef91a4949350505050565b6006546001600160a01b031633146107ae5760405163118cdaa760e01b815233600482015260240161050f565b6104e5828260405180602001604052806000815250610fdb565b600680546001600160a01b038381166001600160a01b0319831681179093556040519116919082907f8be0079c531659141344cd1fd0a4f28419497f9722a3daafe3b4186f6b6457e090600090a35050565b6001600160a01b038216610c4e57604051630b61174360e31b81526001600160a01b038316600482015260240161050f565b6001600160a01b03838116600081815260056020908152604080832094871680845294825291829020805460ff191686151590811790915591519182527f17307eab39ab6107e8899845ad3d59bd9653f200f220920489ca2b5937696c31910161067a565b6001600160a01b0383163b15610dd757604051630a85bd0160e11b81526001600160a01b0384169063150b7a0290610cf59088908890879087906004016116a7565b6020604051808303816000875af1925050508015610d30575060408051601f3d908101601f19168201909252610d2d918101906116e4565b60015b610d99573d808015610d5e576040519150601f19603f3d011682016040523d82523d6000602084013e610d63565b606091505b508051600003610d9157604051633250574960e11b81526001600160a01b038516600482015260240161050f565b805160208201fd5b6001600160e01b03198116630a85bd0160e11b14610dd557604051633250574960e11b81526001600160a01b038516600482015260240161050f565b505b5050505050565b60606000610deb83610ff3565b600101905060008167ffffffffffffffff811115610e0b57610e0b6112ce565b6040519080825280601f01601f191660200182016040528015610e35576020820181803683370190505b5090508181016020015b600019016f181899199a1a9b1b9c1cb0b131b232b360811b600a86061a8153600a8504945084610e3f57509392505050565b8080610e8557506001600160a01b03821615155b15610f47576000610e9584610a44565b90506001600160a01b03831615801590610ec15750826001600160a01b0316816001600160a01b031614155b8015610ed45750610ed2818461086e565b155b15610efd5760405163a9fbf51f60e01b81526001600160a01b038416600482015260240161050f565b8115610f455783856001600160a01b0316826001600160a01b03167f8c5be1e5ebec7d5bd14f71427d1e84f3dd0314c0f7b2291e5b200ac8c7c3b92560405160405180910390a45b505b5050600090815260046020526040902080546001600160a01b0319166001600160a01b0392909216919091179055565b610f828383836110cb565b6106a2576001600160a01b038316610fb057604051637e27328960e01b81526004810182905260240161050f565b60405163177e802f60e01b81526001600160a01b03831660048201526024810182905260440161050f565b610fe58383611131565b6106a2336000858585610cb3565b60008072184f03e93ff9f4daa797ed6e38ed64bf6a1f0160401b83106110325772184f03e93ff9f4daa797ed6e38ed64bf6a1f0160401b830492506040015b6d04ee2d6d415b85acef8100000000831061105e576d04ee2d6d415b85acef8100000000830492506020015b662386f26fc10000831061107c57662386f26fc10000830492506010015b6305f5e1008310611094576305f5e100830492506008015b61271083106110a857612710830492506004015b606483106110ba576064830492506002015b600a83106104195760010192915050565b60006001600160a01b038316158015906111295750826001600160a01b0316846001600160a01b031614806111055750611105848461086e565b8061112957506000828152600460205260409020546001600160a01b038481169116145b949350505050565b6001600160a01b03821661115b57604051633250574960e11b81526000600482015260240161050f565b600061116983836000610a8a565b90506001600160a01b038116156106a2576040516339e3563760e11b81526000600482015260240161050f565b6001600160e01b031981168114610a4157600080fd5b6000602082840312156111be57600080fd5b81356111c981611196565b9392505050565b60005b838110156111eb5781810151838201526020016111d3565b50506000910152565b6000815180845261120c8160208601602086016111d0565b601f01601f19169290920160200192915050565b6020815260006111c960208301846111f4565b60006020828403121561124557600080fd5b5035919050565b80356001600160a01b038116811461126357600080fd5b919050565b6000806040838503121561127b57600080fd5b6112848361124c565b946020939093013593505050565b6000806000606084860312156112a757600080fd5b6112b08461124c565b92506112be6020850161124c565b9150604084013590509250925092565b634e487b7160e01b600052604160045260246000fd5b600067ffffffffffffffff808411156112ff576112ff6112ce565b604051601f8501601f19908116603f01168101908282118183101715611327576113276112ce565b8160405280935085815286868601111561134057600080fd5b858560208301376000602087830101525050509392505050565b60006020828403121561136c57600080fd5b813567ffffffffffffffff81111561138357600080fd5b8201601f8101841361139457600080fd5b611129848235602084016112e4565b6000602082840312156113b557600080fd5b6111c98261124c565b600080604083850312156113d157600080fd5b6113da8361124c565b9150602083013580151581146113ef57600080fd5b809150509250929050565b6000806000806080858703121561141057600080fd5b6114198561124c565b93506114276020860161124c565b925060408501359150606085013567ffffffffffffffff81111561144a57600080fd5b8501601f8101871361145b57600080fd5b61146a878235602084016112e4565b91505092959194509250565b6000806040838503121561148957600080fd5b6114928361124c565b91506114a06020840161124c565b90509250929050565b600181811c908216806114bd57607f821691505b6020821081036114dd57634e487b7160e01b600052602260045260246000fd5b50919050565b60006001820161150357634e487b7160e01b600052601160045260246000fd5b5060010190565b601f8211156106a257600081815260208120601f850160051c810160208610156115315750805b601f850160051c820191505b81811015610dd55782815560010161153d565b815167ffffffffffffffff81111561156a5761156a6112ce565b61157e8161157884546114a9565b8461150a565b602080601f8311600181146115b3576000841561159b5750858301515b600019600386901b1c1916600185901b178555610dd5565b600085815260208120601f198616915b828110156115e2578886015182559484019460019091019084016115c3565b50858210156116005787850151600019600388901b60f8161c191681555b5050505050600190811b01905550565b600080845461161e816114a9565b60018281168015611636576001811461164b5761167a565b60ff198416875282151583028701945061167a565b8860005260208060002060005b858110156116715781548a820152908401908201611658565b50505082870194505b50505050835161168e8183602088016111d0565b64173539b7b760d91b9101908152600501949350505050565b6001600160a01b03858116825284166020820152604081018390526080606082018190526000906116da908301846111f4565b9695505050505050565b6000602082840312156116f657600080fd5b81516111c98161119656fea2646970667358221220132987e83b84caf363b086c78bc0e03f7c71e6d12e43399b38a9c866b36f1f2964736f6c63430008140033",
  "linkReferences": {},
  "deployedLinkReferences": {}
}