{
  "_format": "hh-sol-artifact-1",
  "contractName": "RewardToken",
  "sourceName": "contracts/bnb/RewardToken.sol",
  "abi": [
    {
      "inputs": [],
      "stateMutability": "nonpayable",
      "type": "constructor"
    },
    {
      "inputs": [
        {
          "internalType": "address",
          "name": "spender",
          "type": "address"
        },
        {
          "internalType": "uint256",
          "name": "allowance",
          "type": "uint256"
        },
        {
          "internalType": "uint256",
          "name": "needed",
          "type": "uint256"
        }
      ],
      "name": "ERC20InsufficientAllowance",
      "type": "error"
    },
    {
      "inputs": [
        {
          "internalType": "address",
          "name": "sender",
          "type": "address"
        },
        {
          "internalType": "uint256",
          "name": "balance",
          "type": "uint256"
        },
        {
          "internalType": "uint256",
          "name": "needed",
          "type": "uint256"
        }
      ],
      "name": "ERC20InsufficientBalance",
      "type": "error"
    },
    {
      "inputs": [
        {
          "internalType": "address",
          "name": "approver",
          "type": "address"
        }
      ],
      "name": "ERC20InvalidApprover",
      "type": "error"
    },
    {
      "inputs": [
        {
          "internalType": "address",
          "name": "receiver",
          "type": "address"
        }
      ],
      "name": "ERC20InvalidReceiver",
      "type": "error"
    },
    {
      "inputs": [
        {
          "internalType": "address",
          "name": "sender",
          "type": "address"
        }
      ],
      "name": "ERC20InvalidSender",
      "type": "error"
    },
    {
      "inputs": [
        {
          "internalType": "address",
          "name": "spender",
          "type": "address"
        }
      ],
      "name": "ERC20InvalidSpender",
      "type": "error"
    },
    {
      "inputs": [
        {
          "internalType": "address",
          "name": "owner",
          "type": "address"
        }
      ],
      "name": "OwnableInvalidOwner",
      "type": "error"
    },
    {
      "inputs": [
        {
          "internalType": "address",
          "name": "account",
          "type": "address"
        }
      ],
      "name": "OwnableUnauthorizedAccount",
      "type": "error"
    },
    {
      "anonymous": false,
      "inputs": [
        {
          "indexed": true,
          "internalType": "address",
          "name": "owner",
          "type": "address"
        },
        {
          "indexed": true,
          "internalType": "address",
          "name": "spender",
          "type": "address"
        },
        {
          "indexed": false,
          "internalType": "uint256",
          "name": "value",
          "type": "uint256"
        }
      ],
      "name": "Approval",
      "type": "event"
    },
    {
      "anonymous": false,
      "inputs": [
        {
          "indexed": true,
          "internalType": "address",
          "name": "previousOwner",
          "type": "address"
        },
        {
          "indexed": true,
          "internalType": "address",
          "name": "newOwner",
          "type": "address"
        }
      ],
      "name": "OwnershipTransferred",
      "type": "event"
    },
    {
      "anonymous": false,
      "inputs": [
        {
          "indexed": true,
          "internalType": "address",
          "name": "player",
          "type": "address"
        },
        {
          "indexed": false,
          "internalType": "uint256",
          "name": "amount",
          "type": "uint256"
        },
        {
          "indexed": false,
          "internalType": "uint256",
          "name": "timestamp",
          "type": "uint256"
        }
      ],
      "name": "RewardClaimed",
      "type": "event"
    },
    {
      "anonymous": false,
      "inputs": [
        {
          "indexed": true,
          "internalType": "address",
          "name": "from",
          "type": "address"
        },
        {
          "indexed": true,
          "internalType": "address",
          "name": "to",
          "type": "address"
        },
        {
          "indexed": false,
          "internalType": "uint256",
          "name": "value",
          "type": "uint256"
        }
      ],
      "name": "Transfer",
      "type": "event"
    },
    {
      "inputs": [
        {
          "internalType": "address",
          "name": "owner",
          "type": "address"
        },
        {
          "internalType": "address",
          "name": "spender",
          "type": "address"
        }
      ],
      "name": "allowance",
      "outputs": [
        {
          "internalType": "uint256",
          "name": "",
          "type": "uint256"
        }
      ],
      "stateMutability": "view",
      "type": "function"
    },
    {
      "inputs": [
        {
          "internalType": "address",
          "name": "spender",
          "type": "address"
        },
        {
          "internalType": "uint256",
          "name": "value",
          "type": "uint256"
        }
      ],
      "name": "approve",
      "outputs": [
        {
          "internalType": "bool",
          "name": "",
          "type": "bool"
        }
      ],
      "stateMutability": "nonpayable",
      "type": "function"
    },
    {
      "inputs": [
        {
          "internalType": "address",
          "name": "account",
          "type": "address"
        }
      ],
      "name": "balanceOf",
      "outputs": [
        {
          "internalType": "uint256",
          "name": "",
          "type": "uint256"
        }
      ],
      "stateMutability": "view",
      "type": "function"
    },
    {
      "inputs": [
        {
          "internalType": "address[]",
          "name": "_players",
          "type": "address[]"
        },
        {
          "internalType": "uint256[]",
          "name": "_amounts",
          "type": "uint256[]"
        }
      ],
      "name": "batchDistribute",
      "outputs": [],
      "stateMutability": "nonpayable",
      "type": "function"
    },
    {
      "inputs": [],
      "name": "contractBalance",
      "outputs": [
        {
          "internalType": "uint256",
          "name": "",
          "type": "uint256"
        }
      ],
      "stateMutability": "view",
      "type": "function"
    },
    {
      "inputs": [],
      "name": "decimals",
      "outputs": [
        {
          "internalType": "uint8",
          "name": "",
          "type": "uint8"
        }
      ],
      "stateMutability": "view",
      "type": "function"
    },
    {
      "inputs": [
        {
          "internalType": "address",
          "name": "_player",
          "type": "address"
        },
        {
          "internalType": "uint256",
          "name": "_amount",
          "type": "uint256"
        }
      ],
      "name": "distributeReward",
      "outputs": [],
      "stateMutability": "nonpayable",
      "type": "function"
    },
    {
      "inputs": [],
      "name": "name",
      "outputs": [
        {
          "internalType": "string",
          "name": "",
          "type": "string"
        }
      ],
      "stateMutability": "view",
      "type": "function"
    },
    {
      "inputs": [],
      "name": "owner",
      "outputs": [
        {
          "internalType": "address",
          "name": "",
          "type": "address"
        }
      ],
      "stateMutability": "view",
      "type": "function"
    },
    {
      "inputs": [],
      "name": "renounceOwnership",
      "outputs": [],
      "stateMutability": "nonpayable",
      "type": "function"
    },
    {
      "inputs": [],
      "name": "symbol",
      "outputs": [
        {
          "internalType": "string",
          "name": "",
          "type": "string"
        }
      ],
      "stateMutability": "view",
      "type": "function"
    },
    {
      "inputs": [],
      "name": "totalSupply",
      "outputs": [
        {
          "internalType": "uint256",
          "name": "",
          "type": "uint256"
        }
      ],
      "stateMutability": "view",
      "type": "function"
    },
    {
      "inputs": [
        {
          "internalType": "address",
          "name": "to",
          "type": "address"
        },
        {
          "internalType": "uint256",
          "name": "value",
          "type": "uint256"
        }
      ],
      "name": "transfer",
      "outputs": [
        {
          "internalType": "bool",
          "name": "",
          "type": "bool"
        }
      ],
      "stateMutability": "nonpayable",
      "type": "function"
    },
    {
      "inputs": [
        {
          "internalType": "address",
          "name": "from",
          "type": "address"
        },
        {
          "internalType": "address",
          "name": "to",
          "type": "address"
        },
        {
          "internalType": "uint256",
          "name": "value",
          "type": "uint256"
        }
      ],
      "name": "transferFrom",
      "outputs": [
        {
          "internalType": "bool",
          "name": "",
          "type": "bool"
        }
      ],
      "stateMutability": "nonpayable",
      "type": "function"
    },
    {
      "inputs": [
        {
          "internalType": "address",
          "name": "newOwner",
          "type": "address"
        }
      ],
      "name": "transferOwnership",
      "outputs": [],
      "stateMutability": "nonpayable",
      "type": "function"
    },
    {
      "inputs": [
        {
          "internalType": "address",
          "name": "_to",
          "type": "address"
        }
      ],
      "name": "withdrawRemaining",
      "outputs": [],
      "stateMutability": "nonpayable",
      "type": "function"
    }
  ],
  "bytecode": "0x60806040523480156200001157600080fd5b50336040518060400160405280601381526020017f436861696e52656163746f7220526577617264000000000000000000000000008152506040518060400160405280600481526020016310d4949560e21b81525081600390816200007791906200035b565b5060046200008682826200035b565b5050506001600160a01b038116620000b957604051631e4fbdf760e01b8152600060048201526024015b60405180910390fd5b620000c481620000f3565b50620000ed30620000d86012600a6200053c565b620000e790620f424062000554565b62000145565b62000584565b600580546001600160a01b038381166001600160a01b0319831681179093556040519116919082907f8be0079c531659141344cd1fd0a4f28419497f9722a3daafe3b4186f6b6457e090600090a35050565b6001600160a01b038216620001715760405163ec442f0560e01b815260006004820152602401620000b0565b6200017f6000838362000183565b5050565b6001600160a01b038316620001b2578060026000828254620001a691906200056e565b90915550620002269050565b6001600160a01b03831660009081526020819052604090205481811015620002075760405163391434e360e21b81526001600160a01b03851660048201526024810182905260448101839052606401620000b0565b6001600160a01b03841660009081526020819052604090209082900390555b6001600160a01b038216620002445760028054829003905562000263565b6001600160a01b03821660009081526020819052604090208054820190555b816001600160a01b0316836001600160a01b03167fddf252ad1be2c89b69c2b068fc378daa952ba7f163c4a11628f55a4df523b3ef83604051620002a991815260200190565b60405180910390a3505050565b634e487b7160e01b600052604160045260246000fd5b600181811c90821680620002e157607f821691505b6020821081036200030257634e487b7160e01b600052602260045260246000fd5b50919050565b601f8211156200035657600081815260208120601f850160051c81016020861015620003315750805b601f850160051c820191505b8181101562000352578281556001016200033d565b5050505b505050565b81516001600160401b03811115620003775762000377620002b6565b6200038f81620003888454620002cc565b8462000308565b602080601f831160018114620003c75760008415620003ae5750858301515b600019600386901b1c1916600185901b17855562000352565b600085815260208120601f198616915b82811015620003f857888601518255948401946001909101908401620003d7565b5085821015620004175787850151600019600388901b60f8161c191681555b5050505050600190811b01905550565b634e487b7160e01b600052601160045260246000fd5b600181815b808511156200047e57816000190482111562000462576200046262000427565b808516156200047057918102915b93841c939080029062000442565b509250929050565b600082620004975750600162000536565b81620004a65750600062000536565b8160018114620004bf5760028114620004ca57620004ea565b600191505062000536565b60ff841115620004de57620004de62000427565b50506001821b62000536565b5060208310610133831016604e8410600b84101617156200050f575081810a62000536565b6200051b83836200043d565b806000190482111562000532576200053262000427565b0290505b92915050565b60006200054d60ff84168362000486565b9392505050565b808202811582820484141762000536576200053662000427565b8082018082111562000536576200053662000427565b610c8180620005946000396000f3fe608060405234801561001057600080fd5b50600436106101005760003560e01c80638b7afe2e11610097578063ad8bc26b11610066578063ad8bc26b1461020b578063dd62ed3e1461021e578063f2fde38b14610257578063fd0cdcdb1461026a57600080fd5b80638b7afe2e146101c05780638da5cb5b146101d557806395d89b41146101f0578063a9059cbb146101f857600080fd5b806323b872dd116100d357806323b872dd1461016d578063313ce5671461018057806370a082311461018f578063715018a6146101b857600080fd5b806306fdde0314610105578063095ea7b31461012357806318160ddd146101465780631ec8bb8c14610158575b600080fd5b61010d61027d565b60405161011a91906109dc565b60405180910390f35b610136610131366004610a46565b61030f565b604051901515815260200161011a565b6002545b60405190815260200161011a565b61016b610166366004610a46565b610329565b005b61013661017b366004610a70565b6103e7565b6040516012815260200161011a565b61014a61019d366004610aac565b6001600160a01b031660009081526020819052604090205490565b61016b61040b565b3060009081526020819052604090205461014a565b6005546040516001600160a01b03909116815260200161011a565b61010d61041f565b610136610206366004610a46565b61042e565b61016b610219366004610b1a565b61043c565b61014a61022c366004610b86565b6001600160a01b03918216600090815260016020908152604080832093909416825291909152205490565b61016b610265366004610aac565b610608565b61016b610278366004610aac565b610646565b60606003805461028c90610bb9565b80601f01602080910402602001604051908101604052809291908181526020018280546102b890610bb9565b80156103055780601f106102da57610100808354040283529160200191610305565b820191906000526020600020905b8154815290600101906020018083116102e857829003601f168201915b5050505050905090565b60003361031d81858561066e565b60019150505b92915050565b610331610680565b306000908152602081905260409020548111156103955760405162461bcd60e51b815260206004820152601d60248201527f496e73756666696369656e7420636f6e74726163742062616c616e636500000060448201526064015b60405180910390fd5b6103a03083836106ad565b604080518281524260208201526001600160a01b038416917ff01da32686223933d8a18a391060918c7f11a3648639edd87ae013e2e2731743910160405180910390a25050565b6000336103f585828561070c565b6104008585856106ad565b506001949350505050565b610413610680565b61041d600061078b565b565b60606004805461028c90610bb9565b60003361031d8185856106ad565b610444610680565b82811461048b5760405162461bcd60e51b8152602060048201526015602482015274082e4e4c2f240d8cadccee8d040dad2e6dac2e8c6d605b1b604482015260640161038c565b60005b83811015610601578282828181106104a8576104a8610bf3565b905060200201356104ce306001600160a01b031660009081526020819052604090205490565b101561051c5760405162461bcd60e51b815260206004820152601d60248201527f496e73756666696369656e7420636f6e74726163742062616c616e6365000000604482015260640161038c565b6105653086868481811061053257610532610bf3565b90506020020160208101906105479190610aac565b85858581811061055957610559610bf3565b905060200201356106ad565b84848281811061057757610577610bf3565b905060200201602081019061058c9190610aac565b6001600160a01b03167ff01da32686223933d8a18a391060918c7f11a3648639edd87ae013e2e27317438484848181106105c8576105c8610bf3565b90506020020135426040516105e7929190918252602082015260400190565b60405180910390a2806105f981610c1f565b91505061048e565b5050505050565b610610610680565b6001600160a01b03811661063a57604051631e4fbdf760e01b81526000600482015260240161038c565b6106438161078b565b50565b61064e610680565b306000818152602081905260409020549061066a9083836106ad565b5050565b61067b83838360016107dd565b505050565b6005546001600160a01b0316331461041d5760405163118cdaa760e01b815233600482015260240161038c565b6001600160a01b0383166106d757604051634b637e8f60e11b81526000600482015260240161038c565b6001600160a01b0382166107015760405163ec442f0560e01b81526000600482015260240161038c565b61067b8383836108b2565b6001600160a01b03838116600090815260016020908152604080832093861683529290522054600019811015610785578181101561077657604051637dc7a0d960e11b81526001600160a01b0384166004820152602481018290526044810183905260640161038c565b610785848484840360006107dd565b50505050565b600580546001600160a01b038381166001600160a01b0319831681179093556040519116919082907f8be0079c531659141344cd1fd0a4f28419497f9722a3daafe3b4186f6b6457e090600090a35050565b6001600160a01b0384166108075760405163e602df0560e01b81526000600482015260240161038c565b6001600160a01b03831661083157604051634a1406b160e11b81526000600482015260240161038c565b6001600160a01b038085166000908152600160209081526040808320938716835292905220829055801561078557826001600160a01b0316846001600160a01b03167f8c5be1e5ebec7d5bd14f71427d1e84f3dd0314c0f7b2291e5b200ac8c7c3b925846040516108a491815260200190565b60405180910390a350505050565b6001600160a01b0383166108dd5780600260008282546108d29190610c38565b9091555061094f9050565b6001600160a01b038316600090815260208190526040902054818110156109305760405163391434e360e21b81526001600160a01b0385166004820152602481018290526044810183905260640161038c565b6001600160a01b03841660009081526020819052604090209082900390555b6001600160a01b03821661096b5760028054829003905561098a565b6001600160a01b03821660009081526020819052604090208054820190555b816001600160a01b0316836001600160a01b03167fddf252ad1be2c89b69c2b068fc378daa952ba7f163c4a11628f55a4df523b3ef836040516109cf91815260200190565b60405180910390a3505050565b600060208083528351808285015260005b81811015610a09578581018301518582016040015282016109ed565b506000604082860101526040601f19601f8301168501019250505092915050565b80356001600160a01b0381168114610a4157600080fd5b919050565b60008060408385031215610a5957600080fd5b610a6283610a2a565b946020939093013593505050565b600080600060608486031215610a8557600080fd5b610a8e84610a2a565b9250610a9c60208501610a2a565b9150604084013590509250925092565b600060208284031215610abe57600080fd5b610ac782610a2a565b9392505050565b60008083601f840112610ae057600080fd5b50813567ffffffffffffffff811115610af857600080fd5b6020830191508360208260051b8501011115610b1357600080fd5b9250929050565b60008060008060408587031215610b3057600080fd5b843567ffffffffffffffff80821115610b4857600080fd5b610b5488838901610ace565b90965094506020870135915080821115610b6d57600080fd5b50610b7a87828801610ace565b95989497509550505050565b60008060408385031215610b9957600080fd5b610ba283610a2a565b9150610bb060208401610a2a565b90509250929050565b600181811c90821680610bcd57607f821691505b602082108103610bed57634e487b7160e01b600052602260045260246000fd5b50919050565b634e487b7160e01b600052603260045260246000fd5b634e487b7160e01b600052601160045260246000fd5b600060018201610c3157610c31610c09565b5060010190565b8082018082111561032357610323610c0956fea2646970667358221220e3a1c53eef9b6004400e9cbe0a3d04cc09614c17e69dfd356a7319237037086c64736f6c63430008140033",
  "linkReferences": {},
  "deployedLinkReferences": {}
}