{
  "_format": "hh-sol-artifact-1",
  "contractName": "QuestContract",
  "sourceName": "contracts/polygon/QuestContract.sol",
  "abi": [
    {
      "inputs": [],
      "stateMutability": "nonpayable",
      "type": "constructor"
    },
    {
      "inputs": [
        {
          "internalType": "address",
          "name": "owner",
          "type": "address"
        }
      ],
      "name": "OwnableInvalidOwner",
      "type": "error"
    },
    {
      "inputs": [
        {
          "internalType": "address",
          "name": "account",
          "type": "address"
        }
      ],
      "name": "OwnableUnauthorizedAccount",
      "type": "error"
    },
    {
      "anonymous": false,
      "inputs": [
        {
          "indexed": true,
          "internalType": "address",
          "name": "previousOwner",
          "type": "address"
        },
        {
          "indexed": true,
          "internalType": "address",
          "name": "newOwner",
          "type": "address"
        }
      ],
      "name": "OwnershipTransferred",
      "type": "event"
    },
    {
      "anonymous": false,
      "inputs": [
        {
          "indexed": true,
          "internalType": "address",
          "name": "player",
          "type": "address"
        },
        {
          "indexed": true,
          "internalType": "uint256",
          "name": "questId",
          "type": "uint256"
        },
        {
          "indexed": false,
          "internalType": "uint256",
          "name": "timestamp",
          "type": "uint256"
        }
      ],
      "name": "QuestCompleted",
      "type": "event"
    },
    {
      "anonymous": false,
      "inputs": [
        {
          "indexed": true,
          "internalType": "uint256",
          "name": "questId",
          "type": "uint256"
        },
        {
          "indexed": false,
          "internalType": "string",
          "name": "name",
          "type": "string"
        },
        {
          "indexed": false,
          "internalType": "uint256",
          "name": "rewardAmount",
          "type": "uint256"
        }
      ],
      "name": "QuestCreated",
      "type": "event"
    },
    {
      "inputs": [
        {
          "internalType": "uint256",
          "name": "_questId",
          "type": "uint256"
        }
      ],
      "name": "completeQuest",
      "outputs": [],
      "stateMutability": "nonpayable",
      "type": "function"
    },
    {
      "inputs": [
        {
          "internalType": "string",
          "name": "_name",
          "type": "string"
        },
        {
          "internalType": "uint256",
          "name": "_rewardAmount",
          "type": "uint256"
        }
      ],
      "name": "createQuest",
      "outputs": [],
      "stateMutability": "nonpayable",
      "type": "function"
    },
    {
      "inputs": [
        {
          "internalType": "address",
          "name": "_player",
          "type": "address"
        }
      ],
      "name": "getPlayerQuestCount",
      "outputs": [
        {
          "internalType": "uint256",
          "name": "",
          "type": "uint256"
        }
      ],
      "stateMutability": "view",
      "type": "function"
    },
    {
      "inputs": [
        {
          "internalType": "address",
          "name": "_player",
          "type": "address"
        },
        {
          "internalType": "uint256",
          "name": "_questId",
          "type": "uint256"
        }
      ],
      "name": "hasCompletedQuest",
      "outputs": [
        {
          "internalType": "bool",
          "name": "",
          "type": "bool"
        }
      ],
      "stateMutability": "view",
      "type": "function"
    },
    {
      "inputs": [],
      "name": "owner",
      "outputs": [
        {
          "internalType": "address",
          "name": "",
          "type": "address"
        }
      ],
      "stateMutability": "view",
      "type": "function"
    },
    {
      "inputs": [
        {
          "internalType": "address",
          "name": "",
          "type": "address"
        }
      ],
      "name": "playerProgress",
      "outputs": [
        {
          "internalType": "uint256",
          "name": "completedQuests",
          "type": "uint256"
        }
      ],
      "stateMutability": "view",
      "type": "function"
    },
    {
      "inputs": [],
      "name": "questCount",
      "outputs": [
        {
          "internalType": "uint256",
          "name": "",
          "type": "uint256"
        }
      ],
      "stateMutability": "view",
      "type": "function"
    },
    {
      "inputs": [
        {
          "internalType": "uint256",
          "name": "",
          "type": "uint256"
        }
      ],
      "name": "quests",
      "outputs": [
        {
          "internalType": "string",
          "name": "name",
          "type": "string"
        },
        {
          "internalType": "uint256",
          "name": "rewardAmount",
          "type": "uint256"
        },
        {
          "internalType": "bool",
          "name": "active",
          "type": "bool"
        }
      ],
      "stateMutability": "view",
      "type": "function"
    },
    {
      "inputs": [],
      "name": "renounceOwnership",
      "outputs": [],
      "stateMutability": "nonpayable",
      "type": "function"
    },
    {
      "inputs": [
        {
          "internalType": "uint256",
          "name": "_questId",
          "type": "uint256"
        },
        {
          "internalType": "bool",
          "name": "_active",
          "type": "bool"
        }
      ],
      "name": "setQuestActive",
      "outputs": [],
      "stateMutability": "nonpayable",
      "type": "function"
    },
    {
      "inputs": [
        {
          "internalType": "address",
          "name": "newOwner",
          "type": "address"
        }
      ],
      "name": "transferOwnership",
      "outputs": [],
      "stateMutability": "nonpayable",
      "type": "function"
    }
  ],
  "bytecode": "0x60806040523480156200001157600080fd5b5033806200003a57604051631e4fbdf760e01b8152600060048201526024015b60405180910390fd5b6200004581620000e9565b5060408051808201909152600f81526e436f6c6c6563742035204974656d7360881b60208201526200007990606462000139565b60408051808201909152601181527044656665617420313020456e656d69657360781b6020820152620000ae9060c862000139565b6040805180820190915260118152704578706c6f7265203320526567696f6e7360781b6020820152620000e390609662000139565b6200041d565b600080546001600160a01b038381166001600160a01b0319831681178455604051919092169283917f8be0079c531659141344cd1fd0a4f28419497f9722a3daafe3b4186f6b6457e09190a35050565b62000143620001fc565b6003805490600062000155836200022d565b90915550506040805160608101825283815260208082018490526001828401819052600354600090815291529190912081518190620001959082620002fa565b50602082015160018201556040918201516002909101805460ff191691151591909117905560035490517f5a053b0d56754cd3a270176122cefeb5c24c7b584cc5f37a0c623cfae3e0259f90620001f09085908590620003c6565b60405180910390a25050565b6000546001600160a01b031633146200022b5760405163118cdaa760e01b815233600482015260240162000031565b565b6000600182016200024e57634e487b7160e01b600052601160045260246000fd5b5060010190565b634e487b7160e01b600052604160045260246000fd5b600181811c908216806200028057607f821691505b602082108103620002a157634e487b7160e01b600052602260045260246000fd5b50919050565b601f821115620002f557600081815260208120601f850160051c81016020861015620002d05750805b601f850160051c820191505b81811015620002f157828155600101620002dc565b5050505b505050565b81516001600160401b0381111562000316576200031662000255565b6200032e816200032784546200026b565b84620002a7565b602080601f8311600181146200036657600084156200034d5750858301515b600019600386901b1c1916600185901b178555620002f1565b600085815260208120601f198616915b82811015620003975788860151825594840194600190910190840162000376565b5085821015620003b65787850151600019600388901b60f8161c191681555b5050505050600190811b01905550565b604081526000835180604084015260005b81811015620003f65760208187018101516060868401015201620003d7565b506000606082850101526060601f19601f8301168401019150508260208301529392505050565b6109f3806200042d6000396000f3fe608060405234801561001057600080fd5b50600436106100a95760003560e01c8063715018a611610071578063715018a61461012e5780638da5cb5b14610136578063e085f98014610151578063ec7eba0514610173578063f2fde38b14610193578063f8be7347146101a657600080fd5b80631c329337146100ae5780633970ab43146100c357806342836ab5146100df57806342d4b06b14610108578063528be0a91461011b575b600080fd5b6100c16100bc36600461063a565b6101f3565b005b6100cc60035481565b6040519081526020015b60405180910390f35b6100cc6100ed36600461068b565b6001600160a01b031660009081526002602052604090205490565b6100c16101163660046106c3565b610274565b6100c1610129366004610778565b61032f565b6100c16104bd565b6000546040516001600160a01b0390911681526020016100d6565b61016461015f366004610778565b6104d1565b6040516100d6939291906107d7565b6100cc61018136600461068b565b60026020526000908152604090205481565b6100c16101a136600461068b565b61057f565b6101e36101b4366004610801565b6001600160a01b0391909116600090815260026020908152604080832093835260019093019052205460ff1690565b60405190151581526020016100d6565b6101fb6105bd565b60008211801561020d57506003548211155b6102515760405162461bcd60e51b815260206004820152601060248201526f125b9d985b1a59081c5d595cdd08125160821b60448201526064015b60405180910390fd5b600091825260016020526040909120600201805460ff1916911515919091179055565b61027c6105bd565b6003805490600061028c8361082b565b909155505060408051606081018252838152602080820184905260018284018190526003546000908152915291909120815181906102ca90826108db565b50602082015160018201556040918201516002909101805460ff191691151591909117905560035490517f5a053b0d56754cd3a270176122cefeb5c24c7b584cc5f37a0c623cfae3e0259f90610323908590859061099b565b60405180910390a25050565b60008111801561034157506003548111155b6103805760405162461bcd60e51b815260206004820152601060248201526f125b9d985b1a59081c5d595cdd08125160821b6044820152606401610248565b60008181526001602052604090206002015460ff166103d45760405162461bcd60e51b815260206004820152601060248201526f5175657374206e6f742061637469766560801b6044820152606401610248565b33600090815260026020908152604080832084845260010190915290205460ff16156104425760405162461bcd60e51b815260206004820152601760248201527f517565737420616c726561647920636f6d706c657465640000000000000000006044820152606401610248565b33600081815260026020818152604080842086855260018181018452918520805460ff1916909217909155938352528154919061047e8361082b565b9091555050604051428152819033907fe0b5124b12e878158288d1002ed1fb960faff0ec1c7b3168f86d9d1afd1b0d8b9060200160405180910390a350565b6104c56105bd565b6104cf60006105ea565b565b6001602052600090815260409020805481906104ec90610852565b80601f016020809104026020016040519081016040528092919081815260200182805461051890610852565b80156105655780601f1061053a57610100808354040283529160200191610565565b820191906000526020600020905b81548152906001019060200180831161054857829003601f168201915b50505050600183015460029093015491929160ff16905083565b6105876105bd565b6001600160a01b0381166105b157604051631e4fbdf760e01b815260006004820152602401610248565b6105ba816105ea565b50565b6000546001600160a01b031633146104cf5760405163118cdaa760e01b8152336004820152602401610248565b600080546001600160a01b038381166001600160a01b0319831681178455604051919092169283917f8be0079c531659141344cd1fd0a4f28419497f9722a3daafe3b4186f6b6457e09190a35050565b6000806040838503121561064d57600080fd5b823591506020830135801515811461066457600080fd5b809150509250929050565b80356001600160a01b038116811461068657600080fd5b919050565b60006020828403121561069d57600080fd5b6106a68261066f565b9392505050565b634e487b7160e01b600052604160045260246000fd5b600080604083850312156106d657600080fd5b823567ffffffffffffffff808211156106ee57600080fd5b818501915085601f83011261070257600080fd5b813581811115610714576107146106ad565b604051601f8201601f19908116603f0116810190838211818310171561073c5761073c6106ad565b8160405282815288602084870101111561075557600080fd5b826020860160208301376000602093820184015298969091013596505050505050565b60006020828403121561078a57600080fd5b5035919050565b6000815180845260005b818110156107b75760208185018101518683018201520161079b565b506000602082860101526020601f19601f83011685010191505092915050565b6060815260006107ea6060830186610791565b602083019490945250901515604090910152919050565b6000806040838503121561081457600080fd5b61081d8361066f565b946020939093013593505050565b60006001820161084b57634e487b7160e01b600052601160045260246000fd5b5060010190565b600181811c9082168061086657607f821691505b60208210810361088657634e487b7160e01b600052602260045260246000fd5b50919050565b601f8211156108d657600081815260208120601f850160051c810160208610156108b35750805b601f850160051c820191505b818110156108d2578281556001016108bf565b5050505b505050565b815167ffffffffffffffff8111156108f5576108f56106ad565b610909816109038454610852565b8461088c565b602080601f83116001811461093e57600084156109265750858301515b600019600386901b1c1916600185901b1785556108d2565b600085815260208120601f198616915b8281101561096d5788860151825594840194600190910190840161094e565b508582101561098b5787850151600019600388901b60f8161c191681555b5050505050600190811b01905550565b6040815260006109ae6040830185610791565b9050826020830152939250505056fea264697066735822122075fa9517e3d12e3bd848225789be711cb6ce328289387562fbf0b74375d005df64736f6c63430008140033",
  "linkReferences": {},
  "deployedLinkReferences": {}
}