{
  "_format": "hh-sol-artifact-1",
  "contractName": "BadgeTracker",
  "sourceName": "contracts/arbitrum/BadgeTracker.sol",
  "abi": [
    {
      "inputs": [],
      "stateMutability": "nonpayable",
      "type": "constructor"
    },
    {
      "inputs": [
        {
          "internalType": "address",
          "name": "owner",
          "type": "address"
        }
      ],
      "name": "OwnableInvalidOwner",
      "type": "error"
    },
    {
      "inputs": [
        {
          "internalType": "address",
          "name": "account",
          "type": "address"
        }
      ],
      "name": "OwnableUnauthorizedAccount",
      "type": "error"
    },
    {
      "anonymous": false,
      "inputs": [
        {
          "indexed": true,
          "internalType": "address",
          "name": "player",
          "type": "address"
        },
        {
          "indexed": false,
          "internalType": "uint256",
          "name": "totalBadges",
          "type": "uint256"
        },
        {
          "indexed": false,
          "internalType": "uint256",
          "name": "timestamp",
          "type": "uint256"
        }
      ],
      "name": "BadgeUpdated",
      "type": "event"
    },
    {
      "anonymous": false,
      "inputs": [
        {
          "indexed": true,
          "internalType": "address",
          "name": "previousOwner",
          "type": "address"
        },
        {
          "indexed": true,
          "internalType": "address",
          "name": "newOwner",
          "type": "address"
        }
      ],
      "name": "OwnershipTransferred",
      "type": "event"
    },
    {
      "anonymous": false,
      "inputs": [
        {
          "indexed": true,
          "internalType": "address",
          "name": "player",
          "type": "address"
        },
        {
          "indexed": false,
          "internalType": "string",
          "name": "badgeType",
          "type": "string"
        },
        {
          "indexed": false,
          "internalType": "uint256",
          "name": "timestamp",
          "type": "uint256"
        }
      ],
      "name": "SpecialBadgeAwarded",
      "type": "event"
    },
    {
      "inputs": [
        {
          "internalType": "address",
          "name": "_player",
          "type": "address"
        },
        {
          "internalType": "uint8",
          "name": "_badgeType",
          "type": "uint8"
        }
      ],
      "name": "awardBadge",
      "outputs": [],
      "stateMutability": "nonpayable",
      "type": "function"
    },
    {
      "inputs": [
        {
          "internalType": "address[]",
          "name": "_players",
          "type": "address[]"
        }
      ],
      "name": "batchIncrementBadges",
      "outputs": [],
      "stateMutability": "nonpayable",
      "type": "function"
    },
    {
      "inputs": [
        {
          "internalType": "address",
          "name": "_player",
          "type": "address"
        }
      ],
      "name": "getPlayerBadges",
      "outputs": [
        {
          "internalType": "uint256",
          "name": "total",
          "type": "uint256"
        },
        {
          "internalType": "uint256",
          "name": "bronze",
          "type": "uint256"
        },
        {
          "internalType": "uint256",
          "name": "silver",
          "type": "uint256"
        },
        {
          "internalType": "uint256",
          "name": "gold",
          "type": "uint256"
        },
        {
          "internalType": "uint256",
          "name": "lastUpdate",
          "type": "uint256"
        }
      ],
      "stateMutability": "view",
      "type": "function"
    },
    {
      "inputs": [
        {
          "internalType": "address",
          "name": "_player",
          "type": "address"
        }
      ],
      "name": "incrementBadgeCount",
      "outputs": [],
      "stateMutability": "nonpayable",
      "type": "function"
    },
    {
      "inputs": [],
      "name": "owner",
      "outputs": [
        {
          "internalType": "address",
          "name": "",
          "type": "address"
        }
      ],
      "stateMutability": "view",
      "type": "function"
    },
    {
      "inputs": [
        {
          "internalType": "address",
          "name": "",
          "type": "address"
        }
      ],
      "name": "playerBadges",
      "outputs": [
        {
          "internalType": "uint256",
          "name": "totalBadges",
          "type": "uint256"
        },
        {
          "internalType": "uint256",
          "name": "bronzeBadges",
          "type": "uint256"
        },
        {
          "internalType": "uint256",
          "name": "silverBadges",
          "type": "uint256"
        },
        {
          "internalType": "uint256",
          "name": "goldBadges",
          "type": "uint256"
        },
        {
          "internalType": "uint256",
          "name": "lastUpdated",
          "type": "uint256"
        }
      ],
      "stateMutability": "view",
      "type": "function"
    },
    {
      "inputs": [],
      "name": "renounceOwnership",
      "outputs": [],
      "stateMutability": "nonpayable",
      "type": "function"
    },
    {
      "inputs": [
        {
          "internalType": "address",
          "name": "newOwner",
          "type": "address"
        }
      ],
      "name": "transferOwnership",
      "outputs": [],
      "stateMutability": "nonpayable",
      "type": "function"
    }
  ],
  "bytecode": "0x608060405234801561001057600080fd5b50338061003757604051631e4fbdf760e01b81526000600482015260240160405180910390fd5b61004081610046565b50610096565b600080546001600160a01b038381166001600160a01b0319831681178455604051919092169283917f8be0079c531659141344cd1fd0a4f28419497f9722a3daafe3b4186f6b6457e09190a35050565b6108ab806100a56000396000f3fe608060405234801561001057600080fd5b50600436106100885760003560e01c8063a1c909ac1161005b578063a1c909ac1461012e578063d411580114610141578063d5d9600d14610154578063f2fde38b146101c257600080fd5b806335e38ff01461008d578063715018a6146100f6578063798c6b6c146101005780638da5cb5b14610113575b600080fd5b6100c961009b366004610764565b6001602081905260009182526040909120805491810154600282015460038301546004909301549192909185565b604080519586526020860194909452928401919091526060830152608082015260a0015b60405180910390f35b6100fe6101d5565b005b6100fe61010e366004610786565b6101e9565b6000546040516001600160a01b0390911681526020016100ed565b6100fe61013c366004610764565b610486565b6100fe61014f3660046107c3565b610514565b6100c9610162366004610764565b6001600160a01b0316600090815260016020818152604092839020835160a0810185528154808252938201549281018390526002820154948101859052600382015460608201819052600490920154608090910181905292949193929091565b6100fe6101d0366004610764565b61068d565b6101dd6106cb565b6101e760006106f8565b565b6101f16106cb565b60018160ff1610158015610209575060038160ff1611155b61024f5760405162461bcd60e51b8152602060048201526012602482015271496e76616c6964206261646765207479706560701b60448201526064015b60405180910390fd5b8060ff166001036102e9576001600160a01b038216600090815260016020819052604082200180549161028183610838565b9091555050604080518181526006918101919091526542726f6e7a6560d01b60608201524260208201526001600160a01b038316907fb27f515dfe1f9cc9217303866841d503c699584c42385485458016c2e40be615906080015b60405180910390a26103ff565b8060ff1660020361037a576001600160a01b038216600090815260016020526040812060020180549161031b83610838565b9091555050604080518181526006918101919091526529b4b63b32b960d11b60608201524260208201526001600160a01b038316907fb27f515dfe1f9cc9217303866841d503c699584c42385485458016c2e40be615906080016102dc565b6001600160a01b03821660009081526001602052604081206003018054916103a183610838565b9091555050604080518181526004818301526311dbdb1960e21b606082015242602082015290516001600160a01b038416917fb27f515dfe1f9cc9217303866841d503c699584c42385485458016c2e40be615919081900360800190a25b6001600160a01b038216600090815260016020526040812080549161042383610838565b90915550506001600160a01b038216600081815260016020908152604091829020426004820181905590548351908152918201527ff05fe62cac4a5301650f2bcd62359c7104ec25a575d80910542562394bee4770910160405180910390a25050565b61048e6106cb565b6001600160a01b03811660009081526001602052604081208054916104b283610838565b90915550506001600160a01b038116600081815260016020908152604091829020426004820181905590548351908152918201527ff05fe62cac4a5301650f2bcd62359c7104ec25a575d80910542562394bee4770910160405180910390a250565b61051c6106cb565b60005b81811015610688576001600084848481811061053d5761053d61085f565b90506020020160208101906105529190610764565b6001600160a01b031681526020810191909152604001600090812080549161057983610838565b919050555042600160008585858181106105955761059561085f565b90506020020160208101906105aa9190610764565b6001600160a01b031681526020810191909152604001600020600401558282828181106105d9576105d961085f565b90506020020160208101906105ee9190610764565b6001600160a01b03167ff05fe62cac4a5301650f2bcd62359c7104ec25a575d80910542562394bee47706001600086868681811061062e5761062e61085f565b90506020020160208101906106439190610764565b6001600160a01b03168152602080820192909252604090810160002054815190815242928101929092520160405180910390a28061068081610838565b91505061051f565b505050565b6106956106cb565b6001600160a01b0381166106bf57604051631e4fbdf760e01b815260006004820152602401610246565b6106c8816106f8565b50565b6000546001600160a01b031633146101e75760405163118cdaa760e01b8152336004820152602401610246565b600080546001600160a01b038381166001600160a01b0319831681178455604051919092169283917f8be0079c531659141344cd1fd0a4f28419497f9722a3daafe3b4186f6b6457e09190a35050565b80356001600160a01b038116811461075f57600080fd5b919050565b60006020828403121561077657600080fd5b61077f82610748565b9392505050565b6000806040838503121561079957600080fd5b6107a283610748565b9150602083013560ff811681146107b857600080fd5b809150509250929050565b600080602083850312156107d657600080fd5b823567ffffffffffffffff808211156107ee57600080fd5b818501915085601f83011261080257600080fd5b81358181111561081157600080fd5b8660208260051b850101111561082657600080fd5b60209290920196919550909350505050565b60006001820161085857634e487b7160e01b600052601160045260246000fd5b5060010190565b634e487b7160e01b600052603260045260246000fdfea26469706673582212201fce9644563474900a3fad275ccf5f40b235448b934be9a40bf43cb0350babd964736f6c63430008140033",
  "linkReferences": {},
  "deployedLinkReferences": {}
}